{
  "_format": "hh-sol-artifact-1",
  "contractName": "SharedWallet",
  "sourceName": "contracts/SharedWallet.sol",
  "abi": [
    {
      "inputs": [],
      "stateMutability": "nonpayable",
      "type": "constructor"
    },
    {
      "anonymous": false,
      "inputs": [
        {
          "indexed": true,
          "internalType": "address",
          "name": "beneficiary",
          "type": "address"
        },
        {
          "indexed": false,
          "internalType": "uint256",
          "name": "timestamp",
          "type": "uint256"
        }
      ],
      "name": "AddBeneficiaryEvent",
      "type": "event"
    },
    {
      "anonymous": false,
      "inputs": [
        {
          "indexed": true,
          "internalType": "address",
          "name": "beneficiary",
          "type": "address"
        },
        {
          "indexed": false,
          "internalType": "uint256",
          "name": "timestamp",
          "type": "uint256"
        }
      ],
      "name": "RemoveBeneficiaryEvent",
      "type": "event"
    },
    {
      "anonymous": false,
      "inputs": [
        {
          "indexed": true,
          "internalType": "address",
          "name": "_from",
          "type": "address"
        },
        {
          "indexed": true,
          "internalType": "address",
          "name": "_to",
          "type": "address"
        },
        {
          "indexed": false,
          "internalType": "uint256",
          "name": "amount",
          "type": "uint256"
        }
      ],
      "name": "Transfer",
      "type": "event"
    },
    {
      "inputs": [
        {
          "internalType": "address",
          "name": "beneficiaryAddress",
          "type": "address"
        }
      ],
      "name": "addBeneficiary",
      "outputs": [],
      "stateMutability": "nonpayable",
      "type": "function"
    },
    {
      "inputs": [
        {
          "internalType": "address",
          "name": "",
          "type": "address"
        }
      ],
      "name": "beneficiaries",
      "outputs": [
        {
          "internalType": "uint256",
          "name": "",
          "type": "uint256"
        }
      ],
      "stateMutability": "view",
      "type": "function"
    },
    {
      "inputs": [],
      "name": "deposit",
      "outputs": [],
      "stateMutability": "payable",
      "type": "function"
    },
    {
      "inputs": [],
      "name": "getMyWalletAddress",
      "outputs": [
        {
          "internalType": "address",
          "name": "",
          "type": "address"
        }
      ],
      "stateMutability": "view",
      "type": "function"
    },
    {
      "inputs": [],
      "name": "getSharedWalletOwnerAddress",
      "outputs": [
        {
          "internalType": "address",
          "name": "",
          "type": "address"
        }
      ],
      "stateMutability": "view",
      "type": "function"
    },
    {
      "inputs": [],
      "name": "getWalletBalance",
      "outputs": [
        {
          "internalType": "uint256",
          "name": "",
          "type": "uint256"
        }
      ],
      "stateMutability": "view",
      "type": "function"
    },
    {
      "inputs": [
        {
          "internalType": "address",
          "name": "beneficiaryAddress",
          "type": "address"
        }
      ],
      "name": "removeBeneficiary",
      "outputs": [],
      "stateMutability": "nonpayable",
      "type": "function"
    },
    {
      "inputs": [
        {
          "internalType": "uint256",
          "name": "amount",
          "type": "uint256"
        }
      ],
      "name": "withdraw",
      "outputs": [],
      "stateMutability": "nonpayable",
      "type": "function"
    }
  ],
  "bytecode": "0x608060405234801561001057600080fd5b504760008190555033600160006101000a81548173ffffffffffffffffffffffffffffffffffffffff021916908373ffffffffffffffffffffffffffffffffffffffff160217905550610e6c806100686000396000f3fe60806040526004361061007b5760003560e01c806359633a1c1161004e57806359633a1c1461013a578063752dd78e146101635780638e7edc4a1461018e578063d0e30db0146101b95761007b565b806301567739146100805780632e1a7d4d146100bd578063329a27e7146100e65780635926651d14610111575b600080fd5b34801561008c57600080fd5b506100a760048036038101906100a29190610968565b6101c3565b6040516100b491906109ae565b60405180910390f35b3480156100c957600080fd5b506100e460048036038101906100df91906109f5565b6101db565b005b3480156100f257600080fd5b506100fb610539565b60405161010891906109ae565b60405180910390f35b34801561011d57600080fd5b5061013860048036038101906101339190610968565b610542565b005b34801561014657600080fd5b50610161600480360381019061015c9190610968565b6106ea565b005b34801561016f57600080fd5b50610178610810565b6040516101859190610a31565b60405180910390f35b34801561019a57600080fd5b506101a361083a565b6040516101b09190610a31565b60405180910390f35b6101c1610842565b005b60026020528060005260406000206000915090505481565b806001600260003373ffffffffffffffffffffffffffffffffffffffff1673ffffffffffffffffffffffffffffffffffffffff168152602001908152602001600020541015806102785750600160009054906101000a900473ffffffffffffffffffffffffffffffffffffffff1673ffffffffffffffffffffffffffffffffffffffff163373ffffffffffffffffffffffffffffffffffffffff16145b6102b7576040517f08c379a00000000000000000000000000000000000000000000000000000000081526004016102ae90610acf565b60405180910390fd5b8060005410156102fc576040517f08c379a00000000000000000000000000000000000000000000000000000000081526004016102f390610b61565b60405180910390fd5b62015180600260003373ffffffffffffffffffffffffffffffffffffffff1673ffffffffffffffffffffffffffffffffffffffff168152602001908152602001600020544261034b9190610bb0565b118061039657506001600260003373ffffffffffffffffffffffffffffffffffffffff1673ffffffffffffffffffffffffffffffffffffffff16815260200190815260200160002054145b806103ee5750600160009054906101000a900473ffffffffffffffffffffffffffffffffffffffff1673ffffffffffffffffffffffffffffffffffffffff163373ffffffffffffffffffffffffffffffffffffffff16145b61042d576040517f08c379a000000000000000000000000000000000000000000000000000000000815260040161042490610c30565b60405180910390fd5b8160008082825461043e9190610bb0565b9250508190555042600260003373ffffffffffffffffffffffffffffffffffffffff1673ffffffffffffffffffffffffffffffffffffffff168152602001908152602001600020819055503373ffffffffffffffffffffffffffffffffffffffff166108fc839081150290604051600060405180830381858888f193505050501580156104cf573d6000803e3d6000fd5b503373ffffffffffffffffffffffffffffffffffffffff163073ffffffffffffffffffffffffffffffffffffffff167fddf252ad1be2c89b69c2b068fc378daa952ba7f163c4a11628f55a4df523b3ef8460405161052d91906109ae565b60405180910390a35050565b60008054905090565b600160009054906101000a900473ffffffffffffffffffffffffffffffffffffffff1673ffffffffffffffffffffffffffffffffffffffff163373ffffffffffffffffffffffffffffffffffffffff16146105d2576040517f08c379a00000000000000000000000000000000000000000000000000000000081526004016105c990610cc2565b60405180910390fd5b6000600260008373ffffffffffffffffffffffffffffffffffffffff1673ffffffffffffffffffffffffffffffffffffffff1681526020019081526020016000205414610654576040517f08c379a000000000000000000000000000000000000000000000000000000000815260040161064b90610d2e565b60405180910390fd5b6001600260008373ffffffffffffffffffffffffffffffffffffffff1673ffffffffffffffffffffffffffffffffffffffff168152602001908152602001600020819055508073ffffffffffffffffffffffffffffffffffffffff167fd107385b628e6a8bc010b33b3eff84d8a799fa8dcc7fc32a94ed9aebe0e4bfb7426040516106df91906109ae565b60405180910390a250565b600160009054906101000a900473ffffffffffffffffffffffffffffffffffffffff1673ffffffffffffffffffffffffffffffffffffffff163373ffffffffffffffffffffffffffffffffffffffff161461077a576040517f08c379a000000000000000000000000000000000000000000000000000000000815260040161077190610cc2565b60405180910390fd5b6000600260008373ffffffffffffffffffffffffffffffffffffffff1673ffffffffffffffffffffffffffffffffffffffff168152602001908152602001600020819055508073ffffffffffffffffffffffffffffffffffffffff167fe3b125e7645e33c83ef52f7430c11e9d35a34e6583a7f260151772737ca63a9d4260405161080591906109ae565b60405180910390a250565b6000600160009054906101000a900473ffffffffffffffffffffffffffffffffffffffff16905090565b600033905090565b6000341415610886576040517f08c379a000000000000000000000000000000000000000000000000000000000815260040161087d90610dc0565b60405180910390fd5b346000808282546108979190610de0565b925050819055503073ffffffffffffffffffffffffffffffffffffffff163373ffffffffffffffffffffffffffffffffffffffff167fddf252ad1be2c89b69c2b068fc378daa952ba7f163c4a11628f55a4df523b3ef346040516108fb91906109ae565b60405180910390a3565b600080fd5b600073ffffffffffffffffffffffffffffffffffffffff82169050919050565b60006109358261090a565b9050919050565b6109458161092a565b811461095057600080fd5b50565b6000813590506109628161093c565b92915050565b60006020828403121561097e5761097d610905565b5b600061098c84828501610953565b91505092915050565b6000819050919050565b6109a881610995565b82525050565b60006020820190506109c3600083018461099f565b92915050565b6109d281610995565b81146109dd57600080fd5b50565b6000813590506109ef816109c9565b92915050565b600060208284031215610a0b57610a0a610905565b5b6000610a19848285016109e0565b91505092915050565b610a2b8161092a565b82525050565b6000602082019050610a466000830184610a22565b92915050565b600082825260208201905092915050565b7f596f7520617265206e6f742070617274206f66207468652062656e656669636960008201527f61726965732c20736f20796f752063616e277420776974686472617700000000602082015250565b6000610ab9603c83610a4c565b9150610ac482610a5d565b604082019050919050565b60006020820190508181036000830152610ae881610aac565b9050919050565b7f5468657265206973206e6f7420656e6f7567682062616c616e636520696e207460008201527f68652077616c6c65740000000000000000000000000000000000000000000000602082015250565b6000610b4b602983610a4c565b9150610b5682610aef565b604082019050919050565b60006020820190508181036000830152610b7a81610b3e565b9050919050565b7f4e487b7100000000000000000000000000000000000000000000000000000000600052601160045260246000fd5b6000610bbb82610995565b9150610bc683610995565b925082821015610bd957610bd8610b81565b5b828203905092915050565b7f54727920616761696e20696e20323420686f7572730000000000000000000000600082015250565b6000610c1a601583610a4c565b9150610c2582610be4565b602082019050919050565b60006020820190508181036000830152610c4981610c0d565b9050919050565b7f4f6e6c7920746865206f776e6572206f66207468652077616c6c65742063616e60008201527f20706572666f726d2074686973206f7065726174696f6e000000000000000000602082015250565b6000610cac603783610a4c565b9150610cb782610c50565b604082019050919050565b60006020820190508181036000830152610cdb81610c9f565b9050919050565b7f42656e656669636961727920616c726561647920657869737473000000000000600082015250565b6000610d18601a83610a4c565b9150610d2382610ce2565b602082019050919050565b60006020820190508181036000830152610d4781610d0b565b9050919050565b7f596f75206e65656420746f206465706f73697420736f6d6520616d6f756e742060008201527f6f66206d6f6e6579210000000000000000000000000000000000000000000000602082015250565b6000610daa602983610a4c565b9150610db582610d4e565b604082019050919050565b60006020820190508181036000830152610dd981610d9d565b9050919050565b6000610deb82610995565b9150610df683610995565b9250827fffffffffffffffffffffffffffffffffffffffffffffffffffffffffffffffff03821115610e2b57610e2a610b81565b5b82820190509291505056fea2646970667358221220cc3d36d8a5621843a694024ddf81a0f554ff5b109738d6f73edd4c60e82ca08264736f6c634300080b0033",
  "linkReferences": {},
  "deployedLinkReferences": {}
}