{
  "_format": "hh-sol-artifact-1",
  "contractName": "SharedWallet",
  "sourceName": "contracts/SharedWallet.sol",
  "abi": [
    {
      "inputs": [],
      "stateMutability": "nonpayable",
      "type": "constructor"
    },
    {
      "anonymous": false,
      "inputs": [
        {
          "indexed": true,
          "internalType": "address",
          "name": "beneficiary",
          "type": "address"
        },
        {
          "indexed": false,
          "internalType": "uint256",
          "name": "timestamp",
          "type": "uint256"
        }
      ],
      "name": "AddBeneficiaryEvent",
      "type": "event"
    },
    {
      "anonymous": false,
      "inputs": [
        {
          "indexed": true,
          "internalType": "address",
          "name": "_from",
          "type": "address"
        },
        {
          "indexed": true,
          "internalType": "address",
          "name": "_to",
          "type": "address"
        },
        {
          "indexed": false,
          "internalType": "uint256",
          "name": "amount",
          "type": "uint256"
        }
      ],
      "name": "DepositTransferEvent",
      "type": "event"
    },
    {
      "anonymous": false,
      "inputs": [
        {
          "indexed": true,
          "internalType": "address",
          "name": "previousOwner",
          "type": "address"
        },
        {
          "indexed": true,
          "internalType": "address",
          "name": "newOwner",
          "type": "address"
        }
      ],
      "name": "OwnershipTransferred",
      "type": "event"
    },
    {
      "anonymous": false,
      "inputs": [
        {
          "indexed": true,
          "internalType": "address",
          "name": "_from",
          "type": "address"
        },
        {
          "indexed": true,
          "internalType": "address",
          "name": "_to",
          "type": "address"
        },
        {
          "indexed": false,
          "internalType": "uint256",
          "name": "amount",
          "type": "uint256"
        }
      ],
      "name": "WithdrawProfitTransferEvent",
      "type": "event"
    },
    {
      "anonymous": false,
      "inputs": [
        {
          "indexed": true,
          "internalType": "address",
          "name": "_from",
          "type": "address"
        },
        {
          "indexed": true,
          "internalType": "address",
          "name": "_to",
          "type": "address"
        },
        {
          "indexed": false,
          "internalType": "uint256",
          "name": "amount",
          "type": "uint256"
        }
      ],
      "name": "WithdrawTransferEvent",
      "type": "event"
    },
    {
      "inputs": [
        {
          "internalType": "address",
          "name": "",
          "type": "address"
        }
      ],
      "name": "beneficiaries",
      "outputs": [
        {
          "internalType": "uint256",
          "name": "",
          "type": "uint256"
        }
      ],
      "stateMutability": "view",
      "type": "function"
    },
    {
      "inputs": [
        {
          "internalType": "address",
          "name": "",
          "type": "address"
        }
      ],
      "name": "beneficiariyStatus",
      "outputs": [
        {
          "internalType": "bool",
          "name": "",
          "type": "bool"
        }
      ],
      "stateMutability": "view",
      "type": "function"
    },
    {
      "inputs": [
        {
          "internalType": "address",
          "name": "",
          "type": "address"
        }
      ],
      "name": "beneficiaryWithdrawalTimestamps",
      "outputs": [
        {
          "internalType": "uint256",
          "name": "",
          "type": "uint256"
        }
      ],
      "stateMutability": "view",
      "type": "function"
    },
    {
      "inputs": [],
      "name": "deposit",
      "outputs": [],
      "stateMutability": "payable",
      "type": "function"
    },
    {
      "inputs": [],
      "name": "getMyWalletAddress",
      "outputs": [
        {
          "internalType": "address",
          "name": "",
          "type": "address"
        }
      ],
      "stateMutability": "view",
      "type": "function"
    },
    {
      "inputs": [],
      "name": "getSharedWalletOwnerAddress",
      "outputs": [
        {
          "internalType": "address",
          "name": "",
          "type": "address"
        }
      ],
      "stateMutability": "view",
      "type": "function"
    },
    {
      "inputs": [],
      "name": "getWalletBalance",
      "outputs": [
        {
          "internalType": "uint256",
          "name": "",
          "type": "uint256"
        }
      ],
      "stateMutability": "view",
      "type": "function"
    },
    {
      "inputs": [],
      "name": "owner",
      "outputs": [
        {
          "internalType": "address",
          "name": "",
          "type": "address"
        }
      ],
      "stateMutability": "view",
      "type": "function"
    },
    {
      "inputs": [],
      "name": "renounceOwnership",
      "outputs": [],
      "stateMutability": "nonpayable",
      "type": "function"
    },
    {
      "inputs": [],
      "name": "retrieveSharedWalletProfit",
      "outputs": [
        {
          "internalType": "uint256",
          "name": "",
          "type": "uint256"
        }
      ],
      "stateMutability": "view",
      "type": "function"
    },
    {
      "inputs": [
        {
          "internalType": "address",
          "name": "newOwner",
          "type": "address"
        }
      ],
      "name": "transferOwnership",
      "outputs": [],
      "stateMutability": "nonpayable",
      "type": "function"
    },
    {
      "inputs": [
        {
          "internalType": "uint256",
          "name": "amount",
          "type": "uint256"
        }
      ],
      "name": "withdraw",
      "outputs": [],
      "stateMutability": "nonpayable",
      "type": "function"
    },
    {
      "inputs": [
        {
          "internalType": "uint256",
          "name": "amount",
          "type": "uint256"
        }
      ],
      "name": "withdrawMyProfit",
      "outputs": [],
      "stateMutability": "nonpayable",
      "type": "function"
    }
  ],
  "bytecode": "0x608060405234801561001057600080fd5b5061002d6100226100d260201b60201c565b6100da60201b60201c565b476001819055506001600560003373ffffffffffffffffffffffffffffffffffffffff1673ffffffffffffffffffffffffffffffffffffffff16815260200190815260200160002060006101000a81548160ff02191690831515021790555033600360006101000a81548173ffffffffffffffffffffffffffffffffffffffff021916908373ffffffffffffffffffffffffffffffffffffffff16021790555061019e565b600033905090565b60008060009054906101000a900473ffffffffffffffffffffffffffffffffffffffff169050816000806101000a81548173ffffffffffffffffffffffffffffffffffffffff021916908373ffffffffffffffffffffffffffffffffffffffff1602179055508173ffffffffffffffffffffffffffffffffffffffff168173ffffffffffffffffffffffffffffffffffffffff167f8be0079c531659141344cd1fd0a4f28419497f9722a3daafe3b4186f6b6457e060405160405180910390a35050565b6116e5806101ad6000396000f3fe6080604052600436106100c25760003560e01c8063715018a61161007f5780638e7edc4a116100595780638e7edc4a14610268578063d0e30db014610293578063d67d45d71461029d578063f2fde38b146102c8576100c2565b8063715018a6146101fb578063752dd78e146102125780638da5cb5b1461023d576100c2565b806301567739146100c75780631a02afbc146101045780632db149ef146101415780632e1a7d4d1461017e578063329a27e7146101a7578063411d4782146101d2575b600080fd5b3480156100d357600080fd5b506100ee60048036038101906100e99190610e59565b6102f1565b6040516100fb9190610e9f565b60405180910390f35b34801561011057600080fd5b5061012b60048036038101906101269190610e59565b610309565b6040516101389190610ed5565b60405180910390f35b34801561014d57600080fd5b5061016860048036038101906101639190610e59565b610329565b6040516101759190610e9f565b60405180910390f35b34801561018a57600080fd5b506101a560048036038101906101a09190610f1c565b610341565b005b3480156101b357600080fd5b506101bc610723565b6040516101c99190610e9f565b60405180910390f35b3480156101de57600080fd5b506101f960048036038101906101f49190610f1c565b61072d565b005b34801561020757600080fd5b506102106108d8565b005b34801561021e57600080fd5b50610227610960565b6040516102349190610f58565b60405180910390f35b34801561024957600080fd5b5061025261096f565b60405161025f9190610f58565b60405180910390f35b34801561027457600080fd5b5061027d610998565b60405161028a9190610f58565b60405180910390f35b61029b6109a0565b005b3480156102a957600080fd5b506102b2610ac3565b6040516102bf9190610e9f565b60405180910390f35b3480156102d457600080fd5b506102ef60048036038101906102ea9190610e59565b610acd565b005b60046020528060005260406000206000915090505481565b60056020528060005260406000206000915054906101000a900460ff1681565b60066020528060005260406000206000915090505481565b80600560003373ffffffffffffffffffffffffffffffffffffffff1673ffffffffffffffffffffffffffffffffffffffff16815260200190815260200160002060009054906101000a900460ff166103ce576040517f08c379a00000000000000000000000000000000000000000000000000000000081526004016103c590611042565b60405180910390fd5b806001541015610413576040517f08c379a000000000000000000000000000000000000000000000000000000000815260040161040a906110d4565b60405180910390fd5b6706f05b59d3b20000600460003373ffffffffffffffffffffffffffffffffffffffff1673ffffffffffffffffffffffffffffffffffffffff16815260200190815260200160002054101561049d576040517f08c379a00000000000000000000000000000000000000000000000000000000081526004016104949061118c565b60405180910390fd5b666a94d74f43000081600460003373ffffffffffffffffffffffffffffffffffffffff1673ffffffffffffffffffffffffffffffffffffffff168152602001908152602001600020546104f091906111db565b1015610531576040517f08c379a0000000000000000000000000000000000000000000000000000000008152600401610528906112f3565b60405180910390fd5b622819a0600660003373ffffffffffffffffffffffffffffffffffffffff1673ffffffffffffffffffffffffffffffffffffffff168152602001908152602001600020544261058091906111db565b116105c0576040517f08c379a00000000000000000000000000000000000000000000000000000000081526004016105b790611385565b60405180910390fd5b81600160008282546105d291906111db565b9250508190555081600460003373ffffffffffffffffffffffffffffffffffffffff1673ffffffffffffffffffffffffffffffffffffffff168152602001908152602001600020600082825461062891906111db565b9250508190555042600660003373ffffffffffffffffffffffffffffffffffffffff1673ffffffffffffffffffffffffffffffffffffffff168152602001908152602001600020819055503373ffffffffffffffffffffffffffffffffffffffff166108fc839081150290604051600060405180830381858888f193505050501580156106b9573d6000803e3d6000fd5b503373ffffffffffffffffffffffffffffffffffffffff163073ffffffffffffffffffffffffffffffffffffffff167f0a382d71bac860390e339976e6d6de4d8cb0938b7a55aa47475490141c55a3bb846040516107179190610e9f565b60405180910390a35050565b6000600154905090565b610735610bc5565b73ffffffffffffffffffffffffffffffffffffffff1661075361096f565b73ffffffffffffffffffffffffffffffffffffffff16146107a9576040517f08c379a00000000000000000000000000000000000000000000000000000000081526004016107a0906113f1565b60405180910390fd5b8060025410156107ee576040517f08c379a00000000000000000000000000000000000000000000000000000000081526004016107e590611483565b60405180910390fd5b806002600082825461080091906111db565b92505081905550600360009054906101000a900473ffffffffffffffffffffffffffffffffffffffff1673ffffffffffffffffffffffffffffffffffffffff166108fc829081150290604051600060405180830381858888f1935050505015801561086f573d6000803e3d6000fd5b503373ffffffffffffffffffffffffffffffffffffffff163073ffffffffffffffffffffffffffffffffffffffff167f516c268698202de8ece683f78e7ef8ccb23961e11cc2bc5d3cba2e549a387ea1836040516108cd9190610e9f565b60405180910390a350565b6108e0610bc5565b73ffffffffffffffffffffffffffffffffffffffff166108fe61096f565b73ffffffffffffffffffffffffffffffffffffffff1614610954576040517f08c379a000000000000000000000000000000000000000000000000000000000815260040161094b906113f1565b60405180910390fd5b61095e6000610bcd565b565b600061096a61096f565b905090565b60008060009054906101000a900473ffffffffffffffffffffffffffffffffffffffff16905090565b600033905090565b60003414156109e4576040517f08c379a00000000000000000000000000000000000000000000000000000000081526004016109db90611515565b60405180910390fd5b34600160008282546109f69190611535565b9250508190555034600460003373ffffffffffffffffffffffffffffffffffffffff1673ffffffffffffffffffffffffffffffffffffffff1681526020019081526020016000206000828254610a4c9190611535565b92505081905550610a5c34610c91565b3073ffffffffffffffffffffffffffffffffffffffff163373ffffffffffffffffffffffffffffffffffffffff167f543897a491cb523f429e005dc1c09adad318422de3389d35aadd0d3cc5fe6ea934604051610ab99190610e9f565b60405180910390a3565b6000600254905090565b610ad5610bc5565b73ffffffffffffffffffffffffffffffffffffffff16610af361096f565b73ffffffffffffffffffffffffffffffffffffffff1614610b49576040517f08c379a0000000000000000000000000000000000000000000000000000000008152600401610b40906113f1565b60405180910390fd5b600073ffffffffffffffffffffffffffffffffffffffff168173ffffffffffffffffffffffffffffffffffffffff161415610bb9576040517f08c379a0000000000000000000000000000000000000000000000000000000008152600401610bb0906115fd565b60405180910390fd5b610bc281610bcd565b50565b600033905090565b60008060009054906101000a900473ffffffffffffffffffffffffffffffffffffffff169050816000806101000a81548173ffffffffffffffffffffffffffffffffffffffff021916908373ffffffffffffffffffffffffffffffffffffffff1602179055508173ffffffffffffffffffffffffffffffffffffffff168173ffffffffffffffffffffffffffffffffffffffff167f8be0079c531659141344cd1fd0a4f28419497f9722a3daafe3b4186f6b6457e060405160405180910390a35050565b600560003373ffffffffffffffffffffffffffffffffffffffff1673ffffffffffffffffffffffffffffffffffffffff16815260200190815260200160002060009054906101000a900460ff16610df357666a94d74f430000811015610d2c576040517f08c379a0000000000000000000000000000000000000000000000000000000008152600401610d239061168f565b60405180910390fd5b6001600560003373ffffffffffffffffffffffffffffffffffffffff1673ffffffffffffffffffffffffffffffffffffffff16815260200190815260200160002060006101000a81548160ff021916908315150217905550666a94d74f43000060026000828254610d9d9190611535565b925050819055503373ffffffffffffffffffffffffffffffffffffffff167fd107385b628e6a8bc010b33b3eff84d8a799fa8dcc7fc32a94ed9aebe0e4bfb742604051610dea9190610e9f565b60405180910390a25b50565b600080fd5b600073ffffffffffffffffffffffffffffffffffffffff82169050919050565b6000610e2682610dfb565b9050919050565b610e3681610e1b565b8114610e4157600080fd5b50565b600081359050610e5381610e2d565b92915050565b600060208284031215610e6f57610e6e610df6565b5b6000610e7d84828501610e44565b91505092915050565b6000819050919050565b610e9981610e86565b82525050565b6000602082019050610eb46000830184610e90565b92915050565b60008115159050919050565b610ecf81610eba565b82525050565b6000602082019050610eea6000830184610ec6565b92915050565b610ef981610e86565b8114610f0457600080fd5b50565b600081359050610f1681610ef0565b92915050565b600060208284031215610f3257610f31610df6565b5b6000610f4084828501610f07565b91505092915050565b610f5281610e1b565b82525050565b6000602082019050610f6d6000830184610f49565b92915050565b600082825260208201905092915050565b7f596f7520617265206e6f742070617274206f66207468652062656e656669636960008201527f61726965732c20736f20796f752063616e6e6f742077697468647261772e205460208201527f6f206265636f6d6520612062656e65666963696172792c206a7573742064657060408201527f6f73697420746f207468652077616c6c65740000000000000000000000000000606082015250565b600061102c607283610f73565b915061103782610f84565b608082019050919050565b6000602082019050818103600083015261105b8161101f565b9050919050565b7f5468657265206973206e6f7420656e6f7567682062616c616e636520696e207460008201527f68652077616c6c65740000000000000000000000000000000000000000000000602082015250565b60006110be602983610f73565b91506110c982611062565b604082019050919050565b600060208201905081810360008301526110ed816110b1565b9050919050565b7f596f752068617665206e6f74206465706f736974656420656e6f7567682c207960008201527f6f75206e65656420746f2068617665206174206c6561737420302e352045544860208201527f206265666f726520796f752063616e2077697468647261770000000000000000604082015250565b6000611176605883610f73565b9150611181826110f4565b606082019050919050565b600060208201905081810360008301526111a581611169565b9050919050565b7f4e487b7100000000000000000000000000000000000000000000000000000000600052601160045260246000fd5b60006111e682610e86565b91506111f183610e86565b925082821015611204576112036111ac565b5b828203905092915050565b7f596f75206861766520657863656564656420796f757220617661696c61626c6560008201527f206c696d697420666f72207769746864726177616c2028302e3033204554482060208201527f697320737562747261637465642066726f6d20796f75722062616c616e63652060408201527f666f72206d61696e74656e616e6365206f66207468652073686172656420776160608201527f6c6c657429000000000000000000000000000000000000000000000000000000608082015250565b60006112dd608583610f73565b91506112e88261120f565b60a082019050919050565b6000602082019050818103600083015261130c816112d0565b9050919050565b7f596f75206e65656420746f20776169742061206d6f6e7468206265666f72652060008201527f796f752063616e206d616b6520616e6f74686572207769746864726177616c00602082015250565b600061136f603f83610f73565b915061137a82611313565b604082019050919050565b6000602082019050818103600083015261139e81611362565b9050919050565b7f4f776e61626c653a2063616c6c6572206973206e6f7420746865206f776e6572600082015250565b60006113db602083610f73565b91506113e6826113a5565b602082019050919050565b6000602082019050818103600083015261140a816113ce565b9050919050565b7f796f752063616e6e6f74207769746864726177206d6f7265207468616e20796f60008201527f75722070726f6669740000000000000000000000000000000000000000000000602082015250565b600061146d602983610f73565b915061147882611411565b604082019050919050565b6000602082019050818103600083015261149c81611460565b9050919050565b7f596f75206e65656420746f206465706f73697420736f6d6520616d6f756e742060008201527f6f66206d6f6e6579210000000000000000000000000000000000000000000000602082015250565b60006114ff602983610f73565b915061150a826114a3565b604082019050919050565b6000602082019050818103600083015261152e816114f2565b9050919050565b600061154082610e86565b915061154b83610e86565b9250827fffffffffffffffffffffffffffffffffffffffffffffffffffffffffffffffff038211156115805761157f6111ac565b5b828201905092915050565b7f4f776e61626c653a206e6577206f776e657220697320746865207a65726f206160008201527f6464726573730000000000000000000000000000000000000000000000000000602082015250565b60006115e7602683610f73565b91506115f28261158b565b604082019050919050565b60006020820190508181036000830152611616816115da565b9050919050565b7f596f757220696e697469616c206465706f736974206d7573742062652061742060008201527f6c6561737420302e303320455448000000000000000000000000000000000000602082015250565b6000611679602e83610f73565b91506116848261161d565b604082019050919050565b600060208201905081810360008301526116a88161166c565b905091905056fea2646970667358221220fcf86766ef2b0b91ba651f35d35e9c04e86b04b267870d5665e50a582afb6ece64736f6c634300080b0033",
  "linkReferences": {},
  "deployedLinkReferences": {}
}